:040000008A11112828
:10000800FE00030EF0000408F1000A08F200831253
:1000180003137F08F3008A11DA288A11EA28831665
:1000280003139B01FE308500FF30860000308312E9
:100038000313AB000030AA000030A9000030A8006C
:100048008A11CA208A112828831203132809A400B8
:100058002909A5002A09A6002B09A700A40A031943
:10006800A50A0319A60A0319A70A8A11B5208A1135
:10007800831203132008A40721080318210F452819
:100088004628A50722080318220F4B284C28A60744
:1000980023080318230AA70700302702031D5E2838
:1000A80000302602031D5E28F4302502031D5E2859
:1000B8002C302402031C6128622828288A11B520C4
:1000C8008A11831203132308AB002208AA0021080F
:1000D800A9002008A80005080139A4000130A406D9
:1000E80005082406FE3924068500282828288A11B0
:1000F8001128831603130C140000831603130C1025
:10010800831203130E08F4007408AC000F08F400FF
:100118007408AD007808B1007708B0007608AF0021
:100128007508AE000C1899289A287D2883160313A1
:100138000C140800831203130C1CA328A428B42849
:100148000130F507003003180130F60700300318B6
:100158000130F707003003180130F8070C10B428F5
:1001680008008A117D208A112C308400831300082E
:1001780083120313A000840A0008A100840A00085F
:10018800A200840A0008A300C928080083120313E8
:1001980090018E018F010C10831603130C148B171A
:1001A8000B17313083120313900008008A119E2028
:1001B8008A11730883120313FF0072088A007108FA
:1001C8008400700E8300FE0E7E0E0900F501F60114
:1001D800F701F801AC01AD01AE01AF01B001B10109
:0601E80083018A111328B7
:04400E0029FFFCFF8B
:00000001FF
